:100000000C942B010C9474120C9499120C94000013
:100010000C9400000C9400000C9400000C94000060
:100020000C9400000C942B130C9400000C94501BA7
:100030000C9400000C946D1B0C9400000C940000B8
:100040000C9400000C9400000C9400000C94000030
:100050000C94000000002110422063308440A55021
:10006000C660E770088129914AA16BB18CC1ADD1FE
:10007000CEE1EFF13112100273325222B5529442A6
:10008000F772D662399318837BB35AA3BDD39CC34E
:10009000FFF3DEE36224433420040114E664C774F2
:1000A000A44485546AA54BB528850995EEE5CFF59E
:1000B000ACC58DD55336722611163006D776F66646
:1000C0009556B4465BB77AA719973887DFF7FEE7EE
:1000D0009DD7BCC7C448E5588668A7784008611812
:1000E00002282338CCC9EDD98EE9AFF9488969993E
:1000F0000AA92BB9F55AD44AB77A966A711A500AE6
:10010000333A122AFDDBDCCBBFFB9EEB799B588B8D
:100110003BBB1AABA66C877CE44CC55C222C033C31
:10012000600C411CAEED8FFDECCDCDDD2AAD0BBDDD
:10013000688D499D977EB66ED55EF44E133E322E85
:10014000511E700E9FFFBEEFDDDFFCCF1BBF3AAF2D
:10015000599F788F8891A981CAB1EBA10CD12DC18B
:100160004EF16FE18010A100C230E3200450254021
:1001700046706760B9839893FBA3DAB33DC31CD381
:100180007FE35EF3B1029012F322D2323542145271
:1001900077625672EAB5CBA5A89589856EF54FE5CD
:1001A0002CD50DC5E234C324A014810466744764C1
:1001B00024540544DBA7FAB79987B8975FE77EF721
:1001C0001DC73CD7D326F2369106B0165766767611
:1001D000154634564CD96DC90EF92FE9C899E989ED
:1001E0008AB9ABA94458654806782768C018E10861
:1001F0008238A3287DCB5CDB3FEB1EFBF98BD89BC1
:10020000BBAB9ABB754A545A376A167AF10AD01AB0
:10021000B32A923A2EFD0FED6CDD4DCDAABD8BAD0C
:10022000E89DC98D267C076C645C454CA23C832C00
:10023000E01CC10C1FEF3EFF5DCF7CDF9BAFBABF60
:10024000D98FF89F176E367E554E745E932EB23E50
:10025000D10EF01E0000F894EE27ECBBF1E0FBBFDE
:10026000EBBFE5BFF8E1F1BDE1BD8DE0A2E0BB274A
:10027000ED938A95E9F780E094E0A0E6ED9301978D
:10028000E9F7E4E5F2E085919591009761F0A59199
:10029000B59105901590BF01F00105900D92019761
:1002A000E1F7FB01F0CFEFE5EDBFE4E0EEBFCCE915
:1002B000D0E00C945B0103D3EE2454FE2FC0F894DD
:1002C000EFEE5E227894E091C300F091C400309785
:1002D00029F03197E093C300F093C400E091C60089
:1002E000F091C700309729F03197E093C600F09362
:1002F000C7000E94D4130E941114EE2EA091CB00CF
:10030000E0E0EA1720F4A0913704A03009F006C01D
:1003100036D5E091CB00E150E093CB00A0913804BA
:10032000E0E0EA1738F40E943F19E0913804E15008
:10033000E0933804E7E1EE1511F46ED3B8C0E5E1BF
:10034000EE1519F40E946517B2C0E9E1EE1509F443
:10035000ACC0EEE1EE1509F4A8C0EFE1EE1551F4E2
:10036000E0E0E093D200E093D500E093D400E09386
:10037000D3009BC0E0E2EE1519F40E94CE1797C09F
:10038000E1E2EE1509F491C0E2E2EE1519F40E94E3
:10039000F7178DC0E3E2EE1519F40E940A1887C022
:1003A000E4E2EE1571F5E0E0E0939C00E0939D003F
:1003B000E0E0E0939E00E0939F00E0E0E093A00087
:1003C000E093A100E0E0E093A200E093A300E0E06E
:1003D000E093A400E093A500E0E0E093A600E093A2
:1003E000A700E0E0E093A800E093A900E0E0E0933C
:1003F000B600E093B700E0E0E093B800E093B90006
:1004000054C0E5E2EE1519F40E94701850C0E6E2FF
:10041000EE1581F4E0E0E093AA00E093AB00E0E0A9
:10042000E093AC00E093AD00E0E0E093AE00E09339
:10043000AF003BC0E9E2EE1521F4E1E0E093C20039
:1004400034C0E1E3EE1561F40E94C513E091D000E1
:10045000F091D100EC7FE460FA93EA93B4D127C025
:10046000EDE2EE1561F40E94C513E091D000F09129
:10047000D100EA7FE260FA93EA93A5D118C0EEE2D8
:10048000EE1561F40E94C513E091D000F091D10007
:10049000E97FE160FA93EA9396D109C0E2E3EE15B1
:1004A00009F403C0E3E3EE1511F40E94C513E42D33
:1004B000E03011F00C94BE02E2E1EE1531F40E943E
:1004C000C513E1E0E093BD0058C0E1E1EE15B9F4D9
:1004D0000E94C5130E94E51122243324E0E0E0933A
:1004E000CB00E0EAFFE0E093C300F093C400EFE04C
:1004F000E093C500E1E0E093BD004E2E3EC0E6E192
:10050000EE1599F40E94C5130E94E511E0EAFFE0A0
:10051000E093C300F093C400EFE0E093C500E0E097
:10052000E093BD00E1E04E2E28C0E0E1EE1519F4A5
:100530000E94C51322C0EAE2EE15C9F40E94C51359
:100540000E940712E091C800F091C900FA93EA9363
:10055000BCD7A091CA00B0E0E0EDF7E00E947E1B9E
:10056000E093C600F093C700E2E04E2E06C0E2E042
:10057000EA930E940A0CE093BF000FC1E13011F032
:100580000C949703E2E1EE1581F40E94C513E0EAB2
:10059000FFE0E093C300F093C400EFE0E093C500F8
:1005A000E1E0E093BD004424C1C0E1E1EE1559F45F
:1005B0000E94C51322243324E0E0E093CB00E1E065
:1005C000E093BD00B3C0E6E1EE1531F40E94C5131F
:1005D000E0E0E093BD00AAC0E0E1EE1519F40E944E
:1005E000C513A4C0EAE2EE1529F40E94C5130E94C7
:1005F000EB189CC0E091BD00EA930E940A0CE093C6
:10060000BF00A091BF00A536C9F1A43661F403E094
:1006100054FE05C0F894EFEE5E2278940150E0E0BD
:10062000E01708F4F5CFE091A600F091A70031960D
:10063000E093A600F093A700E091BD00EA93E0915B
:10064000BE00EA93E091BF00EA93E091C000EA9314
:10065000E091C100EA930E94BE10E093BB00F093CA
:10066000BC000E94050CE091BB00F091BC00FA9325
:10067000EA930E94F1120E94070C58C0A091C30097
:10068000B091C4000E94A51B21F4E091C200E030AB
:1006900009F44CC0E0EAFFE0E093C300F093C4002B
:1006A000E091BD00EA93E091BE00EA93E091C000C2
:1006B000EA93E091C100EA930E944010E093BB00EE
:1006C000F093BC000E94050CE091BB00F091BC00CF
:1006D000FA93EA930E94F1120E94070CE091C50080
:1006E000E150E093C500E03009F50E94AF10E093BF
:1006F000BB00F093BC00E1E4F1E2FA93EA93E5D6A3
:100700000E94050CE091BB00F091BC00FA93EA93C3
:100710000E94F112E1E4F1E2FA93EA93E1E0EA9354
:10072000DED40E94070CEFE0E093C50036C0E23053
:1007300031F50E94DE0EE093BF00A091BF00A13012
:1007400011F40E94A618E091C600F091C7003097FE
:10075000A9F40E94E811E1E4F1E2FA93EA93E1E0FE
:10076000EA93BDD40E94EB18E0EAFFE0E093C300F7
:10077000F093C400EFE0E093C50044240EC0E330E2
:1007800059F40E94A60FE093BF00A091BF00A130D2
:1007900011F40E94EB1801C044248ECDFFCFA88134
:1007A000A63618F0EAE6EA1708F403C0E881E093F9
:1007B000BE0007C0E881E093C00003C0E881E09379
:1007C000C100219608951A930A93EA81FB81E09370
:1007D000D000F093D1001091BA0000E00031D8F4BD
:1007E000EA81FB81E170E13071F4E02FE03011F437
:1007F000E0E007C0E13011F4E1E003C0E23019F4B9
:10080000E2E0E093BA000F5FEA81FB81F695E7959D
:10081000EA83FB83E3CFE091BA00E11749F00E943D
:10082000E5110E94E81122243324E0E0E093CB009C
:100830001981088124960895E091D000F091D100AB
:100840000895AA81A13218F0E4E2EA1710F4E1E277
:10085000EA83A981A13418F0E4E4EA1710F4E1E492
:10086000E983EA81F0E0E093C800F093C900FE2F2D
:10087000E0E0DF01E981F0E0EA2BFB2BE093C80028
:10088000F093C900E881E093CA00A091CA00A130AA
:1008900010F4E1E005C0A091CA00EEE1EA1710F4FF
:1008A000E093CA0023960895E091BD000895E42DD9
:1008B0000895E091BE000895E7E0F0E008950E94F9
:1008C000B41BF894E0E5E1BBE0E0E2BBE3E0E4BBAD
:1008D000E0E0E5BBE1EBE7BBE0E0E8BBE3E0EABB7F
:1008E000E0E0EBBB0E948A130E94A2135DD30E943A
:1008F00036130E2F0A93FFD21E2F2F2F2A931A93EF
:10090000E0E0EA93ECD30E9423135524E0E0E09367
:100910009C00E0939D00E0E0E0939E00E0939F0048
:10092000E0E0E093A000E093A100E0E0E093A2000B
:10093000E093A300E0E0E093A400E093A500E0E0F2
:10094000E093A600E093A700E0E0E093A800E09326
:10095000A900E0E0E093AA00E093AB00E0E0E093C0
:10096000AC00E093AD00E0E0E093AE00E093AF00B8
:10097000E0E0E093B000E093B100E0E0E093B2008B
:10098000E093B300E0E0E093B400E093B500E0E072
:10099000E093B600E093B700E0E0E093B800E093A6
:1009A000B900E0E0E093BA00E1E0F0E0E093D000CD
:1009B000F093D100E0E0E093D200E093D500E09323
:1009C000D400E093D3004424E6E6E093BE00E1E0E7
:1009D000E093BD00E093C200E0EAFFE0E093C300D3
:1009E000F093C400EFE0E093C500E0E0E093CB00BB
:1009F000E01738F40E94E511E0E0E093BD00E1E08B
:100A00004E2EE0E4EABFEBBFEFE0E5BFE0E0E4BF7D
:100A100078940E94BB1B57C50E94B41BA091B703DA
:100A2000AA3039F40E94C513E0E0E0933704E09364
:100A30003804E0913704E030B9F0E5EFEA930E9422
:100A4000CC13E0E0E0933704E0933804E093CB006C
:100A5000E091B600F091B7003196E093B600F093C4
:100A6000B7000E94BB1B2FC5A091B703A13011F0A6
:100A70000C947D05E091BA00E030D1F5E0913A04A4
:100A8000E03041F0E9EFEA930E94CC13E0E0E0931C
:100A90003A0402C00E94C513E091B903E093CB0071
:100AA000A091CB00A03019F0E7E0EA1718F4E7E0D6
:100AB000E093CB00E8EBF3E03080A091CD003A1654
:100AC00049F0E091B000F091B1003196E093B000B0
:100AD000F093B1003092CD002092CC00E091CD0097
:100AE000F0E00E946E1BE093CE00F093CF0004C0B4
:100AF000E6EFEA930E94CC133FC1A091B703A33065
:100B000001F5E091BA00E030B9F40E94C513E0E0CD
:100B1000E093CB002224332400E010E00039E1E030
:100B20001E0748F4AFE1B2E0A00FB11FE0E0EC9384
:100B30000F5F1F4FF3CF04C0E7EFEA930E94CC137F
:100B40001BC1A091B703A43011F00C943D060E9484
:100B500036132E2FEAE1E093F503E0919D00E09338
:100B6000F603E0919C00E093F703E0919F00E0938F
:100B7000F803E0919E00E093F903E091A100E09377
:100B8000FA03E091A000E093FB03E091A500E0935D
:100B9000FC03E091A400E093FD03E091A700E09343
:100BA000FE03E091A600E093FF03E091B100E09323
:100BB0000004E091B000E0930104E091B300E09301
:100BC0000204E091B200E0930304E091B500E093E9
:100BD0000404E091B400E0930504A6E0B4E0E091E1
:100BE000D200EC93A7E0B4E0E091D500EC93A8E04C
:100BF000B4E0E091D400EC93A9E0B4E0E091D3003C
:100C0000EC93AAE0B4E0E091BD00EC9340920B04B9
:100C100020930C04E6E0E0930D04E2E0E0930E0480
:100C2000E091B700E0930F04E091B600E093100468
:100C3000E091B900E0931104E091B800E093120450
:100C4000E091A300E0931304E091A200E093140468
:100C5000EAEFE09315040FE110E00E33E0E01E0729
:100C600048F4A5EFB3E0A00FB11FE0E0EC930F5FF5
:100C70001F4FF3CF0E94F5187FC0A091B703A53096
:100C800031F50E94C513E0E0E0939C00E0939D00E5
:100C9000E0E0E0939E00E0939F00E0E0E093A0009E
:100CA000E093A100E0E0E093A200E093A300E0E085
:100CB000E093A400E093A500E0E0E093A600E093B9
:100CC000A700E0E0E093A800E093A90055C0A09140
:100CD000B703A63091F40E94C513E1E0E093D2007F
:100CE000E091B803E093D500E091B903E093D4001C
:100CF000E091BA03E093D3003FC0A091B703A730BF
:100D000061F40E94C513E0E0E093D200E093D500C7
:100D1000E093D400E093D3002FC0A091B703A83094
:100D200041F40E94C513E091B803EA930E94621354
:100D300023C0A091B703AA3549F40E94C513E5EA80
:100D4000EA930E948313E8E0E1BDFFCFA091B703CF
:100D5000AB3671F40E94C5130E941D12E1E4F1E26A
:100D6000FA93EA93E0E0EA93BAD1E3E04E2E04C0AE
:100D7000E8EFEA930E94CC130E94BB1BA4C3249704
:100D80000E94B11B00E00E3340F4A02FB0E0AB5046
:100D9000BC4FE0E0EC930F5FF6CFE091CD00A09167
:100DA000CC00AE1728F0A091CD00E091CC0005C09A
:100DB000E091CC00EC59A091CD00EA1B1E2F212F11
:100DC000EEE0E21708F42EE0211728F4A091CB0002
:100DD000E1E0EA1708F004C0E1E0E093F50306C0A3
:100DE000E0E0E093F503E1E0E093CB001093F6033D
:100DF000A7EFB3E0E091CD00EC93E22FA091CD00FE
:100E0000EA0F3E2F343608F034563093F80320931F
:100E1000F903EAEFF3E0EE83FF8350E000E002170E
:100E200010F00C945E07E091CE00F091CF00E15EEF
:100E3000FD4FE887F987A885B9854D91A887B987BF
:100E4000AE81BF814D93AE83BF835427A885B985FA
:100E50004D91A887B987AE81BF814D93AE83BF8383
:100E60005427A885B9854D91A887B987AE81BF81E0
:100E70004D93AE83BF835427A885B9854D91A8872C
:100E8000B987AE81BF814D93AE83BF835427E09174
:100E9000CD00EF5FE093CD00A091CD00A43618F017
:100EA000E0E0E093CD00E091CD00F0E00E946E1B09
:100EB000E093CE00F093CF000F5FB1CF5093320498
:100EC0000E94F518E091B200F091B3003196E093E2
:100ED000B200F093B300E22FA091B400B091B5003E
:100EE000F0E0EA0FFB1FE093B400F093B5000E941E
:100EF000B81B2A9608951A930A9301E411E2EA8135
:100F0000EB3A19F402E411E24AC0EC3A19F403E4B2
:100F100011E245C0ED3A19F404E411E240C0EA3BA5
:100F200019F401E412E23BC0EB3B19F402E412E2D3
:100F300036C0EC3B19F403E412E231C0ED3B19F486
:100F400004E412E22CC0EA3C19F401E413E227C0E5
:100F5000EB3C19F402E413E222C0EC3C19F403E484
:100F600013E21DC0ED3C19F404E413E218C0EA3D9D
:100F700019F401E414E213C0EB3D19F402E414E2A5
:100F80000EC0EC3D19F403E414E209C0ED3D19F480
:100F900004E414E204C0EA3A01F401E411E2E02FAF
:100FA000F12F198108818FC2E5E8F1E8FA93EA93FD
:100FB0000E945D12EFE1F2E8FA93EA930E945D125B
:100FC000E0EFF3E8FA93EA930E945D12E0E0F4E8C0
:100FD000FA93EA930E945D12E0E0F5E8FA93EA934F
:100FE0000E945D12E1E8FEE8FA93EA930E945D1226
:100FF000E0E0FFE8FA93EA930E945D12E0E0F0E996
:10100000FA93EA930E945D12E0E8F1E9FA93EA9319
:101010000E945D12E0E0F2E9FA93EA930E945D1209
:101020000E94E811E0EFF6E8FA93EA930E945D125D
:10103000E6EAF7E8FA93EA930E945D12E8E2F8E83C
:10104000FA93EA930E945D12E0E8F9E8FA93EA93D2
:101050000E945D12EFE0FAE8FA93EA930E945D12B3
:10106000E0EAFBE8FA93EA930E945D12D0D377247A
:101070006624E0E0E093FC00E1E0E093D6000E940B
:101080003613E093D700E5E5E093ED00E093EE0042
:10109000E093EF00E7E0E093F900E1EAE093E0009D
:1010A000EFE8E093E100E6E9E093E200EDE8E093A9
:1010B000E300E9E9E093E400E7E9E093E500EFE825
:1010C000E093E600E0E8E093E7000895E0E0E093D5
:1010D000FC000895E091D800F091D9000895E881CE
:1010E000E03039F0E091D800F091D900E983FA833B
:1010F00019C0E091D600E03009F4E5C1A091D60016
:10110000A13031F4A091D700A03011F0AF3F09F425
:1011100003C0E0E0E093D600E981FA81E093D800D3
:10112000F093D900E981FA81E134A1E2FA07C9F428
:10113000E6EAF7E8FA93EA930E945D12E8E2F8E83B
:10114000FA93EA930E945D12EFE0FAE8FA93EA93C9
:101150000E945D12E0EAFBE8FA93EA930E945D12B6
:10116000B2C1E234A1E2FA07C9F4EDEAF7E8FA9372
:10117000EA930E945D12E8EFF8E8FA93EA930E947E
:101180005D12E0EFFAE8FA93EA930E945D12E0E65E
:10119000FBE8FA93EA930E945D1295C1E334A1E261
:1011A000FA07C9F4E9EBF7E8FA93EA930E945D12B3
:1011B000E0EBF8E8FA93EA930E945D12E8EFFAE8B0
:1011C000FA93EA930E945D12E0E3FBE8FA93EA9354
:1011D0000E945D1278C1E434A1E2FA07C9F4E5EC9B
:1011E000F7E8FA93EA930E945D12E8E6F8E8FA93CA
:1011F000EA930E945D12E0E0FAE8FA93EA930E9413
:101200005D12E0E0FBE8FA93EA930E945D125BC195
:10121000E134A2E2FA07C9F4EDECF7E8FA93EA93B5
:101220000E945D12E8E3F8E8FA93EA930E945D12E7
:10123000E7E0FAE8FA93EA930E945D12E0EDFBE83A
:10124000FA93EA930E945D123EC1E234A2E2FA07E9
:10125000C9F4E8EDF7E8FA93EA930E945D12E0EF33
:10126000F8E8FA93EA930E945D12EFE1FAE8FA9344
:10127000EA930E945D12E0E4FBE8FA93EA930E948D
:101280005D1221C1E334A2E2FA07C9F4E4EEF7E803
:10129000FA93EA930E945D12E8EAF8E8FA93EA9377
:1012A0000E945D12E7E2FAE8FA93EA930E945D1267
:1012B000E0E1FBE8FA93EA930E945D1204C1E43492
:1012C000A2E2FA07C9F4ECEEF7E8FA93EA930E9477
:1012D0005D12E8E7F8E8FA93EA930E945D12EEE205
:1012E000FAE8FA93EA930E945D12E0EEFBE8FA93C3
:1012F000EA930E945D12E7C0E134A3E2FA07C9F461
:10130000E8EFF7E8FA93EA930E945D12E0E3F8E869
:10131000FA93EA930E945D12E6E3FAE8FA93EA93FD
:101320000E945D12E0EBFBE8FA93EA930E945D12E3
:10133000CAC0E234A3E2FA07C9F4E3E0F7E8FA939B
:10134000EA930E945D12E8EEF8E8FA93EA930E94AD
:101350005D12EEE3FAE8FA93EA930E945D12E0E888
:10136000FBE8FA93EA930E945D12ADC0E334A3E276
:10137000FA07C9F4EBE0F7E8FA93EA930E945D12EA
:10138000E8EBF8E8FA93EA930E945D12E1ECFAE8E0
:10139000FA93EA930E945D12E0E8FBE8FA93EA937D
:1013A0000E945D1290C0E434A3E2FA07C9F4E7E1B9
:1013B000F7E8FA93EA930E945D12E0E7F8E8FA93FF
:1013C000EA930E945D12E9ECFAE8FA93EA930E942C
:1013D0005D12E0E5FBE8FA93EA930E945D1273C0A8
:1013E000E134A4E2FA07C9F4EFE1F7E8FA93EA93EB
:1013F0000E945D12E0E4F8E8FA93EA930E945D121D
:10140000E5EBFAE8FA93EA930E945D12E8ECFBE858
:10141000FA93EA930E945D1256C0E234A4E2FA07FE
:10142000C9F4EAE2F7E8FA93EA930E945D12E8EF62
:10143000F8E8FA93EA930E945D12E1EDFAE8FA9374
:10144000EA930E945D12E0E2FBE8FA93EA930E94BD
:101450005D1239C0E334A4E2FA07C9F4E6E3F7E821
:10146000FA93EA930E945D12E0EBF8E8FA93EA93AC
:101470000E945D12E0EEFAE8FA93EA930E945D1290
:10148000E0ECFBE8FA93EA930E945D121CC0E4349E
:10149000A4E2FA07C1F4EEE3F7E8FA93EA930E94B4
:1014A0005D12E0E8F8E8FA93EA930E945D12E8ED35
:1014B000FAE8FA93EA930E945D12E0EFFBE8FA93F0
:1014C000EA930E945D1223960895E881F981E13440
:1014D000A1E2FA07C9F4EFE0F7E8FA93EA930E9471
:1014E0005D12E0EAF8E8FA93EA930E945D12E6EAF8
:1014F000FAE8FA93EA930E945D12E8E2FBE8FA93B5
:10150000EA930E945D127FC1E234A1E2FA07C9F4B6
:10151000E0EFF7E8FA93EA930E945D12E0E6F8E85C
:10152000FA93EA930E945D12EDEAFAE8FA93EA93DD
:101530000E945D12E8EFFBE8FA93EA930E945D12C5
:1015400062C1E334A1E2FA07C9F4E8EFF7E8FA93DD
:10155000EA930E945D12E0E3F8E8FA93EA930E94AE
:101560005D12E9EBFAE8FA93EA930E945D12E0EB70
:10157000FBE8FA93EA930E945D1245C1E434A1E2CC
:10158000FA07B1F4E0E0F7E8FA93EA930E945D12FB
:10159000E0E0F8E8FA93EA9390D7E5ECFAE8FA93FA
:1015A000EA938BD7E8E6FBE8FA93EA9386D72BC158
:1015B000E134A2E2FA07A9F4E7E0F7E8FA93EA9344
:1015C0007CD7E0EDF8E8FA93EA9377D7EDECFAE808
:1015D000FA93EA9372D7E8E3FBE8FA93EA936DD7BC
:1015E00012C1E234A2E2FA07A9F4EFE1F7E8FA93B4
:1015F000EA9363D7E0E4F8E8FA93EA935ED7E8ED7C
:10160000FAE8FA93EA9359D7E0EFFBE8FA93EA9302
:1016100054D7F9C0E334A2E2FA07A9F4E7E2F7E805
:10162000FA93EA934AD7E0E1F8E8FA93EA9345D7C8
:10163000E4EEFAE8FA93EA9340D7E8EAFBE8FA9393
:10164000EA933BD7E0C0E434A2E2FA07A9F4EEE261
:10165000F7E8FA93EA9331D7E0EEF8E8FA93EA93E1
:101660002CD7ECEEFAE8FA93EA9327D7E8E7FBE801
:10167000FA93EA9322D7C7C0E134A3E2FA07A9F4A8
:10168000E6E3F7E8FA93EA9318D7E0EBF8E8FA9381
:10169000EA9313D7E8EFFAE8FA93EA930ED7E0E378
:1016A000FBE8FA93EA9309D7AEC0E234A3E2FA0763
:1016B000A9F4EEE3F7E8FA93EA93FFD6E0E8F8E856
:1016C000FA93EA93FAD6E3E0FAE8FA93EA93F5D6C6
:1016D000E8EEFBE8FA93EA93F0D695C0E334A3E290
:1016E000FA07A9F4E1ECF7E8FA93EA93E6D6E0E822
:1016F000F8E8FA93EA93E1D6EBE0FAE8FA93EA9392
:10170000DCD6E8EBFBE8FA93EA93D7D67CC0E43466
:10171000A3E2FA07A9F4E9ECF7E8FA93EA93CDD645
:10172000E0E5F8E8FA93EA93C8D6E7E1FAE8FA9335
:10173000EA93C3D6E0E7FBE8FA93EA93BED663C028
:10174000E134A4E2FA07A9F4E5EBF7E8FA93EA93A7
:10175000B4D6E8ECF8E8FA93EA93AFD6EFE1FAE80A
:10176000FA93EA93AAD6E0E4FBE8FA93EA93A5D6C3
:101770004AC0E234A4E2FA07A9F4E1EDF7E8FA93EB
:10178000EA939BD6E0E2F8E8FA93EA9396D6EAE287
:10179000FAE8FA93EA9391D6E8EFFBE8FA93EA9332
:1017A0008CD631C0E334A4E2FA07A9F4E0EEF7E8FE
:1017B000FA93EA9382D6E0ECF8E8FA93EA937DD6BE
:1017C000E6E3FAE8FA93EA9378D6E0EBFBE8FA93DB
:1017D000EA9373D618C0E434A4E2FA07A1F4E8ED62
:1017E000F7E8FA93EA9369D6E0EFF8E8FA93EA9318
:1017F00064D6EEE3FAE8FA93EA935FD6E0E8FBE812
:10180000FA93EA935AD62296089596980895969A4E
:10181000C09A08952D970E94B11B15E6E091BA0079
:10182000E03011F00C94EB0C761411F40C94EA0CEB
:10183000E0919C00F0919D003196E0939C00F09324
:101840009D0020E0522DE52FF0E00E946E1BE987FD
:10185000FA8700E0043088F4E02FE60DF0E0E35072
:10186000FF4FE081E98B2E0FE02FED5FF0E0E351B9
:10187000FF4FA989A0830F5FEDCFE62DF0E0E35085
:10188000FF4FFA93EA93FE017296FA93EA930E944D
:10189000D219E62DF0E0E350FF4FFA93EA93FE01F0
:1018A0003D96FA93EA930E944D19E985FA8531969F
:1018B000E987FA873197E15EFD4FA889A083E98522
:1018C000FA853196E987FA873197E15EFD4FAB855E
:1018D000A083E985FA853196E987FA873197E15E39
:1018E000FD4FAC85A083E985FA853196E987FA87B3
:1018F0003197E15EFD4FAD85A0835F5F543608F000
:1019000050E0E62DEC5FF0E0E350FF4FE081E2179E
:1019100011F00C94D50C3516F1F1E091A400F09182
:10192000A5003196E093A400F093A500E0E0EE87D7
:10193000A091D200A13091F4EB85A091D500EA17D7
:1019400051F4EC85A091D400EA1729F4ED85A0911B
:10195000D300EA1709F002C0E1E0EE87AB89A230BC
:1019600011F416E617C0AB89A03031F4AE85A03073
:1019700019F4A889A63609F402C014E60BC0AB8995
:10198000A13031F0AE85A13019F0A889A63611F446
:1019900016E6252E09C0E091A000F091A100319635
:1019A000E093A000F093A10009C0E0919E00F091A7
:1019B0009F003196E0939E00F0939F0000E0053079
:1019C00048F4761429F06394ECE86E1608F0662467
:1019D0000F5FF5CFEEC1761411F40C94D90E2314D9
:1019E00020F4E32DE2193E2F04C0EAEFE2193E2F66
:1019F000330DE7E1E31710F00C94D00EE0919C005A
:101A0000F0919D003196E0939C00F0939D00EFEFE4
:101A1000FFEFE0938901F0938A0120E040E0E0E0ED
:101A2000EA8B522DE62DF0E0E350FF4FE081E98B89
:101A3000761429F06394ECE86E1608F06624E989C0
:101A40002E0FEA9310D5E989E093F000E52FF0E03E
:101A5000E15EFD4FA989A0835F5F5A3F08F050E027
:101A6000351611F4E1E0EA8BE62DF0E0E350FF4F8C
:101A7000E081E98B761429F06394ECE86E1608F0A7
:101A80006624E9892E0FEA93EED4E989E093F10008
:101A9000E52FF0E0E15EFD4FA989A0835F5F5A3F2B
:101AA00008F050E0351611F4E1E0EA8BE62DF0E0A5
:101AB000E350FF4FE081E98B761429F06394ECE862
:101AC0006E1608F06624E9892E0FEA93CCD4E989D2
:101AD000E093F200E52FF0E0E15EFD4FA989A083DD
:101AE0005F5F5A3F08F050E0351611F4E1E0EA8BF1
:101AF000E62DF0E0E350FF4FE081E88B761429F00B
:101B00006394ECE86E1608F06624E8892E0FEA93D9
:101B1000AAD4E889E093F300E091F300E295E07F36
:101B2000AE2FE091F300EF70EA0FE093F400E52FA1
:101B3000F0E0E15EFD4FA889A0835F5F5A3F08F0A7
:101B400050E0351611F4E1E0EA8BE6E6EF87E8892C
:101B5000EF70E88BA889A33019F446E0E7E61CC0D3
:101B6000A889AB3019F449E0E8E616C0A889A4308A
:101B700019F448E0E9E610C0A889AC3011F44BE054
:101B80000AC0A889A73019F441E1E8E605C0A88990
:101B9000A83019F443E1EAE6EF87AF85A63691F461
:101BA000E62DF0E0E350FF4FE081E98B761429F059
:101BB0006394ECE86E1608F06624E989A22F0E946F
:101BC000731B70C0E1E0E887E62DF0E0E350FF4FC3
:101BD000E081E98B761429F06394ECE86E1608F046
:101BE0006624E989EA933FD4E091F400A989EA17D1
:101BF00011F0E0E0E88701E0041700F5E62DF0E0E1
:101C0000E350FF4FE081E98B761429F06394ECE810
:101C10006E1608F06624E989EA9325D4E52FF0E0F2
:101C2000E15EFD4FA989A0835F5F5A3F08F050E055
:101C3000351611F4E1E0EA8B0F5FDECFE62DF0E020
:101C4000E350FF4FE081E98B761429F06394ECE8D0
:101C50006E1608F06624E989F0E0EE83FF83FE2F1C
:101C6000E0E0EE83FF83E62DF0E0E350FF4FE081FC
:101C7000E98B761429F06394ECE86E1608F066247C
:101C8000E989AE81BF81F0E0EA0FFB1FEE83FF839D
:101C9000E0918901F0918A01AE81BF810E94781B99
:101CA000A885EA23E887A52FB0E0A15EBD4FE091AB
:101CB000FC00EC935F5F5A3F08F050E0351611F4DA
:101CC000E1E0EA8BE885E03019F0AA89A03009F05C
:101CD0004DC0E091A400F091A5003196E093A400DE
:101CE000F093A500E0E0EE87A091D200A130E1F4EE
:101CF000E0EFF0E0FA93EA93FE013D96FA93EA935F
:101D00000E944D19EB85A091D500EA1751F4EC859E
:101D1000A091D400EA1729F4ED85A091D300EA1729
:101D200009F002C0E1E0EE87AB89A23011F41F8513
:101D30001CC0AB89A03031F4AE85A03019F4A8895D
:101D4000A23009F402C014E610C0AB89A13031F012
:101D5000AE85A13019F0A889A23039F41F85252E4F
:101D6000E091FC00EF5FE093FC0019C0E989E21705
:101D700051F0E0919E00F0919F003196E0939E001B
:101D8000F0939F000CC0AA89A13049F4E091A00013
:101D9000F091A1003196E093A000F093A10009C05A
:101DA000E091A200F091A3003196E093A200F0939D
:101DB000A300E12F0E94B81B649608950E94B41BF3
:101DC00000E0761411F40C94A10F10E0E62DF0E081
:101DD000E350FF4F2081761429F06394ECE86E16EF
:101DE00008F06624120F2093AF03E62DF0E0E350D5
:101DF000FF4F2081761429F06394ECE86E1608F00A
:101E00006624120F2093B003E62DF0E0E350FF4F5D
:101E10002081761429F06394ECE86E1608F06624AD
:101E2000120F2093B103E62DF0E0E350FF4F208125
:101E3000761429F06394ECE86E1608F06624120F0D
:101E40002093B203E62DF0E0E350FF4F208176149B
:101E500029F06394ECE86E1608F06624120F2093C4
:101E6000B303E62DF0E0E350FF4F2081761429F014
:101E70006394ECE86E1608F06624120F2093B40306
:101E8000E62DF0E0E350FF4F2081761429F06394B3
:101E9000ECE86E1608F06624120F2093B503E62DC9
:101EA000F0E0E350FF4F2081761429F06394ECE8D2
:101EB0006E1608F06624120F2093B603E62DF0E0AC
:101EC000E350FF4F2081761429F06394ECE86E16FE
:101ED00008F06624120FE62DF0E0E350FF4F20815A
:101EE000761429F06394ECE86E1608F06624120F5D
:101EF000E62DF0E0E350FF4F2081761429F0639443
:101F0000ECE86E1608F06624120FE62DF0E0E350C0
:101F1000FF4F2081761429F06394ECE86E1608F0E8
:101F20006624120FE62DF0E0E350FF4F2081761477
:101F300029F06394ECE86E1608F06624211709F482
:101F400001E0E02F0E94BB1B239608951A930A9389
:101F500000E0761411F40C94261001E0E62DF0E078
:101F6000E350FF4F1081761429F06394ECE86E166D
:101F700008F06624153509F000E0E62DF0E0E350A6
:101F8000FF4F1081761429F06394ECE86E1608F088
:101F90006624153509F000E0E62DF0E0E350FF4F30
:101FA0001081761429F06394ECE86E1608F066242C
:101FB000153509F000E0E62DF0E0E350FF4F108109
:101FC000761429F06394ECE86E1608F06624153553
:101FD00009F000E0E62DF0E0E350FF4F10817614A9
:101FE00029F06394ECE86E1608F06624153509F0C4
:101FF00000E0E62DF0E0E350FF4F1081761429F069
:102000006394ECE86E1608F06624153509F000E0DC
:10201000E62DF0E0E350FF4F1081761429F0639431
:10202000ECE86E1608F06624153509F000E0E62DA0
:10203000F0E0E350FF4F1081761429F06394ECE850
:102040006E1608F06624153509F000E0E02F0991BE
:10205000199108950A9300E0083088F4E02FEA5FB0
:10206000F0E0E652FF4FFF93EF93A981BA81ED9123
:10207000A983BA83AF91BF91EC930F5FEDCF31C2CB
:102080000A93E5E5E093DA00E093DB00E093DC00FF
:10209000E6E3E093DD00E093DE00E093DF00E2E9B9
:1020A000E093E800EAEAE093E900E093EA00E2E680
:1020B000E093EB00EC81E03099F1AB81A73639F485
:1020C000E3E9E093E800E3E6E093EB0029C0AB81AD
:1020D000A83639F4EBE9E093E800EBE6E093EB0097
:1020E0001FC0AB81A93669F4E4E9E093E800EA8116
:1020F000E093E900E981E093EA00E4E6E093EB0095
:102100000FC0AB81AA3661F4ECE9E093E800EA8104
:10211000E093E900E981E093EA00ECE6E093EB006C
:10212000E0E0E093EC0006E0E1E1E01788F0ECEE9F
:10213000F0E0FF93EF93E081AE2FE02FF0E0E65266
:10214000FF4FE081EA0FAF91BF91EC930F5FECCFAF
:10215000E3E1E093F900EAEDF0E0088134C1E5E560
:10216000E093DA00E093DB00E093DC00E093DD0035
:10217000E4E0E093F900EAEDF0E00895E7E0E093B1
:10218000F900EC81E03011F4E6E6EB83AA81A43695
:1021900059F5E091F000E53519F4E9E9E093F00034
:1021A000E091F000E03019F4E6E6E093F000E3EFB0
:1021B000F0E0DF01EC91E07FEC93E8E0E093F900E0
:1021C000E2EFF0E0FF93EF93E081AFEFEA27AF910A
:1021D000BF91EC93E3EFF0E0DF01EC91E660EC936C
:1021E000E6E6E093F400EDC0EA81AB81EA1719F46A
:1021F000A63609F4BAC0E091F000E53519F4E9E932
:10220000E093F000E091F000E03019F4E6E6E093AE
:10221000F000E3EFF0E0DF01EC91E07FEC93E8E029
:10222000E093F900EB81E636A1F4E2EFF0E0FF93F2
:10223000EF93E081AFEFEA27AF91BF91EC93E3EF2B
:10224000F0E0DF01EC91E260EC93E2E2E093F40075
:102250008BC0E736A1F4E2EFF0E0FF93EF93E0816B
:10226000AFEFEA27AF91BF91EC93E3EFF0E0DF012E
:10227000EC91E360EC93E3E3E093F40075C0E8369F
:10228000A1F4E2EFF0E0FF93EF93E081AFEFEA27F4
:10229000AF91BF91EC93E3EFF0E0DF01EC91EB60E5
:1022A000EC93EBEBE093F4005FC0E93619F5E2EF55
:1022B000F0E0FF93EF93E081AFEFEA27AF91BF919A
:1022C000EC93E3EFF0E0DF01EC91E460EC93E4E405
:1022D000E093F400E981E093F500E881E093F600F3
:1022E000E981E093F700E881E093F800ECE0E09307
:1022F000F9003AC0EA3619F5E2EFF0E0FF93EF9308
:10230000E081AFEFEA27AF91BF91EC93E3EFF0E00C
:10231000DF01EC91EC60EC93ECECE093F400E981EC
:10232000E093F500E881E093F600E981E093F7009F
:10233000E881E093F800ECE0E093F90015C0E536A1
:1023400099F4E2EFF0E0FF93EF93E081AFEFEA273B
:10235000AF91BF91EC93E3EFF0E0DF01EC91E66029
:10236000EC93E6E6E093F4002CC0E091F000E53554
:1023700091F4E9E9E093F400E091F100E093F500D5
:10238000E091F200E093F600E091F300E093F700B3
:10239000EBE0E093F900E091F000E03091F4E6E644
:1023A000E093F400E091F100E093F500E091F20099
:1023B000E093F600E091F300E093F700EBE0E093A8
:1023C000F900EDEEF0E0259608957724662408954F
:1023D000E5E8F3E9FA93EA9370D0E5E8F4E9FA93D3
:1023E000EA936BD0E5E8F5E9FA93EA9366D0E091D9
:1023F000BA00E03029F4E0E0E093FA00E5E004C040
:10240000E4E0E093FA00E1E0E093FB000895E6E306
:10241000F3E9FA93EA9351D0E6E3F4E9FA93EA9305
:102420004CD0E6E3F5E9FA93EA9347D0E0E0E09395
:10243000FA00EDE0E093FB000895E5E5F3E9FA9397
:10244000EA933BD0E5E5F4E9FA93EA9336D0E5E583
:10245000F5E9FA93EA9331D0E0E0E093FA00E8E09E
:10246000E093FB000895E0918901F0918A01FE2F2D
:10247000E0E0FF93EF93E4E5F0E0FF93EF93E0916A
:102480008A01F070DF01E881F0E0AE27BF27EFEFAF
:10249000F0E0EA23FB23AF91BF91EE0FFF1FEA0F9D
:1024A000FB1F0E94861BAF91BF91EA27FB27E09399
:1024B0008901F0938A01219608950A93E981FA81AE
:1024C000E070EF2FF0E00E2FC4980A930E94931350
:1024D00009810A930E949313EFEFEA930E949313EA
:1024E000C49A088123960895EA93EFB7EA930A9372
:1024F000761420F4E62DE7190E2F04C0ECE8E71956
:102500000E2F060DE9E1E01768F4E8E08E2E9090BA
:10251000FA00A090FB00B72CE0E0E9BFE8E1EAB9DF
:10252000E0E8EBBFE0ECEABF0991E991EFBFE99188
:102530001895AA93BA93EA93EFB7EA93ADEFB0E098
:10254000AB0D08F4B395EC91E160859BEE7F8A9426
:1025500019F0EE0FEC933FC0EC93B394AB2DAC3875
:1025600008F0BB24A92DA03059F19A9419F0A8E0E5
:102570008A2E31C0AE2FE370E130C9F3E230B9F3F7
:10258000AF70A33059F0AB3061F0A43069F0AC30DB
:1025900071F0A73079F0A83081F015C0E8E0AE2ED8
:1025A000E6CFEBE0AE2EE3CFEAE0AE2EE0CFEDE0FB
:1025B000AE2EDDCFE3E1AE2EDACFE5E1AE2ED7CF02
:1025C000AA94A9F67B2CE1E0E9BFE8EDEAB9E0E4E2
:1025D000EBBFE0ECEABFE991EFBFE991B991A991B6
:1025E0001895E881F981E883F983F894A881B98185
:1025F00068E07091F90000000000949892E2915018
:10260000F1F70000C0988C91119687FF03C000007D
:10261000949A03C0949800000000615029F0880F3C
:102620009FE19150F1F7F1CF715039F000000000B7
:102630009CE19150F1F768E0E6CF9FE19150F1F70E
:10264000789422960895E2E0E8BFE9BFE4E0E3BFB2
:10265000E0EEE2BF0895EA93EFB7EA93E0EEE2BF5F
:10266000E0E15E2AE991EFBFE99118951A930A9388
:1026700000E0ABE1B0E00E948A1B1E2F1030B9F0E1
:102680001F3FA9F01A3A18F0EDEAE11780F41A3B5F
:1026900018F0EDEBE11758F41A3C18F0EDECE117E7
:1026A00030F41A3D18F0EDEDE11708F402C0012FE7
:1026B00005C0E0E0ABE1B0E00E94961BE02F09917D
:1026C00019910895A881A030C1F0AA3A18F0EDEA56
:1026D000EA1798F4A881AA3B18F0EDEBEA1768F422
:1026E000A881AA3C18F0EDECEA1738F4A881AA3DBD
:1026F00018F0EDEDEA1708F405C0E881ABE1B0E0B1
:102700000E94961B05C0E881AEE1B0E00E94961BD6
:10271000219608950A93E9E5EDB90EB10FB100E0F5
:10272000C49A099108950A93F894E981EFB9EEB13A
:10273000E078E038E1F70EB10FB17894E02F08812E
:1027400022960895E2E0EBB9E8EDEAB9E6E8E0BDEB
:10275000E0E0E0BDE2E2E9B922243324E0E0DE2E4D
:10276000CE2EE0938D01E0939801E0939A01E093DF
:102770009B01E0933704E0933804E0933904E0933D
:102780003A04EEE3E09336040895E2E0EA9380D75A
:10279000E4E1EA937DD70895E2E0EA9379D7E8810E
:1027A000EA9376D721960895E091BA00E03009F4D3
:1027B0000895E0919A01E03011F0E1502FC03214F9
:1027C00079F1E0913804E03059F5E0919801E0307A
:1027D000A1F0E091AC00F091AD003196E093AC0037
:1027E000F093AD00A0919B01A23019F4E1E0E093D9
:1027F0009D01E0919E01EF5F0DC0E091AA00F09174
:10280000AB003196E093AA00F093AB00E1E0E093D7
:102810009801E0E0E0939E0110D6E7E2E0939A0190
:1028200008950E94B21BDC1411F40C946017ED2D76
:10283000D394F0E0E156FE4F0081EFE7DE22E09115
:102840008D01E03031F4023019F4E1E0E0938D01C4
:1028500036C3EB3021F400939C01ECE02EC3EC3046
:1028600011F00C948314E0E0E0938D01E091980165
:10287000E03011F40C947B14E0919B01A0919C0139
:10288000EA1731F4A0919B01E4E1EA27E01709F08F
:1028900017C0E0919D01E03021F0A0919B01A43090
:1028A00009F003C0E0E0E0939D01E0E0E0939801CF
:1028B000E0919B01EF5FE0939B013090990115C07F
:1028C000023021F4E1E0E0938D0115C0A0919E015A
:1028D000E4E1EA1780F4E0E0E0939801E0919B01E5
:1028E000EF5FE0939B0130909901EEE3E0933604B3
:1028F000E3E0E0939A01E0913704E03019F0E0E082
:10290000E0933704DCC2E13011F00C9496150431E9
:1029100011F4EBE008C1003171F4E2E0E0938C01C6
:10292000E0E0E0938B0100938E01E2E0E0938D0103
:10293000D0928F01FAC0013129F4E0E0E0938D01DB
:10294000E1E1BFC2023129F4E0E0E0938D01E2E170
:10295000B8C2053129F4E0E0E0938D01E5E1B1C2B0
:10296000063159F4E0E0E0938D01E0919D01E03003
:1029700011F0E0E0A6C2E6E1A4C2093171F4E3E09F
:10298000E0938C01E0E0E0938B0100938E01E3E0A3
:10299000E0938D01D0928F01C8C00E3171F4E3E055
:1029A000E0938C01E0E0E0938B0100938E01E4E082
:1029B000E0938D01D0928F01B8C00F3129F4E0E08F
:1029C000E0938D01EFE17DC2003229F4E0E0E09375
:1029D0008D01E0E276C2013271F4E1E0E0938C0116
:1029E000E0E0E0938B0100938E01E5E0E0938D0140
:1029F000D0928F019AC0023229F4E0E0E0938D0179
:102A0000E2E25FC2033229F4E0E0E0938D01E3E209
:102A100058C2043229F4E0E0E0938D01E4E251C2AF
:102A2000053229F4E0E0E0938D01E5E24AC2063286
:102A300029F4E0E0E0938D01E6E243C2093271F44B
:102A4000E8E0E0938C01E0E0E0938B0100938E01DD
:102A5000E6E0E0938D01D0928F0167C00A3271F4F5
:102A6000E3E0E0938C01E0E0E0938B0100938E01C2
:102A7000E7E0E0938D01D0928F0157C0073171F4E8
:102A8000EEE3E0938C01E0E0E0938B0100938E0194
:102A9000E8E0E0938D01D0928F0147C00E3229F417
:102AA000E0E0E0938D01EEE20CC20D3229F4E0E0AB
:102AB000E0938D01EDE205C2013329F4E0E0E093FB
:102AC0008D01E1E3FEC1023371F4E2E0E0938C0199
:102AD000E0E0E0938B0100938E01E9E0E0938D014B
:102AE000D0928F0122C0033371F4E1E0E0938C01B6
:102AF000E0E0E0938B0100938E01EAE0E0938D012A
:102B0000D0928F0112C0023069F4E091B800F091C8
:102B1000B9003196E093B800F093B900E1E0E0939A
:102B20003A0403C0E0E0E0938D01C9C1E23011F046
:102B30000C94D615E0918C01A0918B01AE1780F416
:102B4000B0E0A057BE4F0C93E02FA0918E01EA2772
:102B5000E0938E01E0918B01EF5FE0938B0125C044
:102B6000E0918E01E017E1F4E0919001F0E01E2F7A
:102B70002F2FE12FF22FFE2FE0E0DF01E0919101F6
:102B8000F0E0EA2BFB2B1E2F2F2F2A931A93E0E065
:102B9000EA930E946F08E0E0E0938D01E0E191C1CB
:102BA000E0E0E0938D01D0908F0189C1E330A1F581
:102BB000E0918C01A0918B01AE1780F4B0E0A0579A
:102BC000BE4F0C93E02FA0918E01EA27E0938E0177
:102BD000E0918B01EF5FE0938B011DC0E0918E01CE
:102BE000E017A1F4E0919001EA930E94CF03E091F5
:102BF0009101EA930E94DA03E0919201EA930E9424
:102C0000DE03E0E0E0938D01E9E15BC1E0E0E09309
:102C10008D01D0908F0153C1E430A1F5E0918C017A
:102C2000A0918B01AE1780F4B0E0A057BE4F0C937B
:102C3000E02FA0918E01EA27E0938E01E0918B01B5
:102C4000EF5FE0938B011DC0E0918E01E017A1F4CE
:102C5000E1E0E093D200E0919001E093D500E091B3
:102C60009101E093D400E0919201E093D300E0E081
:102C7000E0938D01EEE125C1E0E0E0938D01D0907D
:102C80008F011DC1E53049F5E0918C01A0918B01C8
:102C9000AE1780F4B0E0A057BE4F0C93E02FA09188
:102CA0008E01EA27E0938E01E0918B01EF5FE093C4
:102CB0008B0112C0E0918E01E01749F4E091900180
:102CC000EA9300DDE0E0E0938D01E1E2FAC0E0E0AC
:102CD000E0938D01D0908F01F2C0E63059F5E0917C
:102CE0008C01A0918B01AE1780F4B0E0A057BE4FCD
:102CF0000C93E02FA0918E01EA27E0938E01E091E2
:102D00008B01EF5FE0938B0114C0E0918E01E0171F
:102D100059F4E0E9F1E0FA93EA930E942A10E0E026
:102D2000E0938D01E9E2CDC0E0E0E0938D01D09029
:102D30008F01C5C0E93099F5E0918C01A0918B011C
:102D4000AE1780F4B0E0A057BE4F0C93E02FA091D7
:102D50008E01EA27E0938E01E0918B01EF5FE09313
:102D60008B011CC0E0918E01E01799F4B0919001A5
:102D7000A0E0E0919101F0E0EA2BFB2B3E2F4F2FDA
:102D80004A933A930E94E303E0E0E0938D01E2E38B
:102D900098C0E0E0E0938D01D0908F0190C0EA30C0
:102DA00091F5E0918C01A0918B01AE1780F4B0E019
:102DB000A057BE4F0C93E02FA0918E01EA27E0931D
:102DC0008E01E0918B01EF5FE0938B011BC0E091DE
:102DD0008E01E01791F4E0919001E17019F0E0E0CC
:102DE000E0939B01E0919001E27011F00E9466086F
:102DF000E0E0E0938D01E3E364C0E0E0E0938D0167
:102E0000D0908F015CC0E73081F5E0918C01A091FA
:102E10008B01AE1780F4B0E0A057BE4F0C93E02FAB
:102E2000A0918E01EA27E0938E01E0918B01EF5F84
:102E3000E0938B0119C0E0918E01E01781F4E091DD
:102E40009001EA93E0919101EA93E0919201EA9373
:102E50000E942104E0E0E0938D01EAE232C0E0E06C
:102E6000E0938D01D0908F012AC0E83029F5E091E0
:102E70008C01A0918B01AE1780F4B0E0A954BC4F37
:102E80000C93E02FA0918E01EA27E0938E01E09150
:102E90008B01EF5FE0938B010EC0E0918E01E01794
:102EA00029F4E0E0E0938D01E7E10BC0E0E0E0937E
:102EB0008D01D0908F0103C0E0E0E0938D01B3CC91
:102EC000E0E00E94B91B259608952A970E94B11B45
:102ED0005CDC0E946A081E2F2F2FE12FF22FE0707A
:102EE000EF2FF0E03E2FE12FF22F4E2F0E945404DF
:102EF0005E2F0E945704EF870E945904EE870E94BC
:102F00005C04EC87FD87E070EF2FF0E0EB87EC8549
:102F1000EA870E941C04E887F987E070EF2FF0E051
:102F2000EF83E885EE83E1E1E327E427E527AF853A
:102F3000EA27AE85EA27AB85EA27AA85EA27AF818B
:102F4000EA27AE81EA270E2FE2E0EA93A1D3E5E17A
:102F5000EA939ED3E6E0EA939BD3E2E0EA9398D328
:102F60003A9396D34A9394D35A9392D3EF85EA93A4
:102F70008FD3EE85EA938CD3EB85EA9389D3EA85E8
:102F8000EA9386D3EF81EA9383D3EE81EA9380D3E9
:102F90000A937ED30E94B81B609608950A93F5DBCE
:102FA000E091D200A0E2EA27A091D500EA27A09103
:102FB000D400EA27A091D300EA270E2FE2E0EA939B
:102FC00067D3E0E2EA9364D3E091D200EA9360D35E
:102FD000E091D500EA935CD3E091D400EA9358D312
:102FE000E091D300EA9354D30A9352D3F2C01A93D8
:102FF0000A93CBDB3BDB1E2FE2E2E1270E2FE2E060
:10300000EA9346D3E2E2EA9343D31A9341D30A9375
:103010003FD30AC127970E94B11BB7DBE0919D0007
:103020001E2F20919C00E0919F003E2F40919E001A
:10303000E091A1005E2FE091A000EC87E091A50057
:10304000EB87E091A400EA87E091A700E987E0918F
:10305000A600E887E091A900EF83E091A800EE8345
:10306000E3E2E127E227E327E427E527AC85EA2727
:10307000AB85EA27AA85EA27A985EA27A885EA2752
:10308000AF81EA27AE81EA270E2FE2E0EA9300D370
:10309000E3E2EA93FDD21A93FBD22A93F9D23A9350
:1030A000F7D24A93F5D25A93F3D2EC85EA93F0D251
:1030B000EB85EA93EDD2EA85EA93EAD2E985EA93D1
:1030C000E7D2E885EA93E4D2EF81EA93E1D2EE8198
:1030D000EA93DED20A93DCD20E94B81B2D960895A3
:1030E00021970E94B11B51DBE091AB001E2F209174
:1030F000AA00E091AD003E2F4091AC00E091AF00FE
:103100005E2FE091AE00EE83E5E2E127E227E327C0
:10311000E427E527AE81EA270E2FE2E0EA93B8D252
:10312000E5E2EA93B5D21A93B3D22A93B1D23A9395
:10313000AFD24A93ADD25A93ABD2EE81EA93A8D2E2
:103140000A93A6D20E94B81B279608950A93E0918D
:10315000AF03ABE2AE27E091B003AE27E091B1033D
:10316000AE27E091B203AE27E091B303AE27E09122
:10317000B403AE27E091B503AE27E091B603EA278A
:103180000E2FE2E0EA9384D2EBE2EA9381D2E0915F
:10319000AF03EA937DD2E091B003EA9379D2E09154
:1031A000B103EA9375D2E091B203EA9371D2E09150
:1031B000B303EA936DD2E091B403EA9369D2E0914C
:1031C000B503EA9365D2E091B603EA9361D20A931C
:1031D0005FD209910895E2E0EA935AD2ECE2EA93D1
:1031E00057D2ECE2EA9354D208951A930A93E1E09D
:1031F000E0933704E2E0EA934BD2E8E1EA9348D265
:1032000018E100E00E3340F4E02FF0E0EB50FC4F0B
:10321000E0811E270F5FF6CF10933304EFE3E093B6
:103220003804E0E0E09339040991199108951A9364
:103230000A93E1E0E0933704E2E0EA9329D2EB81DC
:10324000EA9326D21B8100E0EA810E1740F4E02FBA
:10325000F0E0EB50FC4FE0811E270F5FF5CFAA8115
:10326000B0E0AB50BC4F1C93EA81EF5FE0933804B1
:10327000E0E0E09339041981088124960895E091F3
:103280003904F0E0EB50FC4FE081EA9301D2E09189
:103290003904EF5FE093390408950A93AB81BC8150
:1032A000EC910E94AD1BA981BA81EC93AB81BC81EA
:1032B0001296EC91E295EF70E695E695E695EF9320
:1032C000AB81BC811196EC91E695EE77AF91EA2B3C
:1032D000EF93AB81BC81EC91E295E07FEE0FEE0FB6
:1032E000EE0FE078AF91EA2BA981BA811196EC93A9
:1032F000AB81BC811296EC91EE0FE87FEF93AB812E
:10330000BC811396EC91E295EF70E695AF91EA2BB4
:10331000A981BA811296EC93AB81BC811396EC9192
:10332000E0730E2F003011F00033C9F5A981BA8186
:10333000BF93AF93EC91EF93AB81BC81EC91E2959D
:10334000E07FEE0FE078AF91EA2BAF91BF91EC9365
:10335000A981BA81BF93AF93EC91EF93AB81BC810C
:103360001196EC91E295E07FEE0FEE0FE074AF91D5
:10337000EA2BAF91BF91EC93A981BA81BF93AF9330
:10338000EC91EF93AB81BC811296EC91E295E07FDA
:10339000EE0FE072AF91EA2BAF91BF91EC930881F1
:1033A000259608950E94B21BAF81B8851C91AF810C
:1033B000B88511962C91AF81B88512963C91AF815A
:1033C000B8851396EC91EF704E2FE42FE13011F495
:1033D00041E613C0E53011F442E60FC0ED3011F4C0
:1033E00043E60BC0EE3011F444E607C0EA3011F4B6
:1033F00045E603C0E23009F446E6AF81B88513968E
:10340000EC91E0730E2F003011F0003379F4E12FCE
:10341000E295E07FEE0FE0744E27E22FE295E07236
:103420004E27E32F0E94A91BE0714E27AD81BE817C
:103430004C930E94B91B2996089528970E94B11BAE
:10344000E0E0EE83A091BA00A23069F4EF5FEE8372
:10345000E150F0E0EB50FC4FDF01E0919B01EC9379
:10346000EE81EF5FEE83432D532DE32DF0E0E15E1F
:10347000FD4FE081EF833394EAEF3E1608F03324EA
:10348000E32DF0E0E15EFD4FE081E8873394EAEF61
:103490003E1608F03324E32DF0E0E15EFD4FE081BD
:1034A000E9873394EAEF3E1608F03324E32DF0E089
:1034B000E15EFD4FE081EA873394EAEF3E1608F0C3
:1034C0003324FE013796FA93EA93FE013D96FA9370
:1034D000EA93E3DEEA85EF701E2F23E131E0E12F6E
:1034E000E13011F411E837C0E53011F412E833C0CF
:1034F000ED3011F413E82FC0EE3011F414E82BC0B6
:10350000EA3011F415E827C0E23011F416E823C0C0
:10351000E33021F417E02AE136E01DC0EB3021F45E
:1035200018E02BE139E017C0E43021F419E02CE178
:1035300038E011C0EC3021F41AE02DE13BE00BC083
:10354000E73021F41BE027E231E105C0E83019F44F
:103550001CE028E233E1A091BA00A230A9F410687F
:1035600020E3E32FEC5FAE81AE0FEEE3EA1760F4E9
:1035700050939901342EEE81E150E093F6032A93A3
:10358000EF81EA9354DE80C0FE013A96DF01EC91B0
:10359000E073EC93AA85A03011F0A03379F4EF81A9
:1035A000E295E07FEE0FE0741E2BE885E295E07275
:1035B0001E2BE9850E94A91BE0711E2BEE81EF5F97
:1035C000EE83E150F0E0EB50FC4F1083EE81EF5FB3
:1035D000EE83E150F0E0EB50FC4FAB85A083EE8131
:1035E000EF5FEE83E150F0E0EB50FC4FAC85A08341
:1035F000EE81EF5FEE83E150F0E0EB50FC4FAD85E4
:10360000A08300E00317A0F4E32DF0E0E15EFD4F9E
:1036100010813394EAEF3E1608F03324EE81EF5F19
:10362000EE83E150F0E0EB50FC4F10830F5FEACFE8
:10363000A091BA00A13049F4EE81E150F0E0EB50E6
:10364000FC4FDF01E0919B01EC93A091BA00A23006
:1036500039F4321429F0E0913604AE81AE1708F047
:1036600001C002CF30929901342EA091BA00A2304D
:1036700021F4EE81E150E093F603EE81E09336040D
:103680002A93EF81EA93D3DD0E94B81B2E9608950A
:103690005D9902C00000FCCFE881ECB92196089545
:1036A000EA93FA93EFB7EA931A930A930BB107FFE1
:1036B0000DC01CB102FD08C0EC2DC394F0E0E15632
:1036C000FE4F1083EFE7CE220BB1F1CF0991199194
:1036D000E991EFBFF991E99118951895EE0FFF1F49
:1036E000EE0FFF1F0895EA17E1E009F0EE270895B5
:1036F000EA17FB07E1E009F0EE270895FA9FF02DA5
:10370000EB9FF00DEA9FE02DF10D08950590F491E7
:10371000E02D0895E199FECFFF93FFB7F894AEBB7B
:10372000BFBBE09AEDB3FFBFFF910895E199FECFD3
:103730009FB7F894AEBBBFBBE09A8DB3E81719F002
:10374000EDBBE29AE19A9FBF089500240A160B068A
:103750000895EE0FEE0FEE0F0895E695E695E695C7
:1037600008955A934A933A932A931A930A93089581
:103770005D814C813B812A81198108810895FFFF79
:10378000FFFFFFFFFFFFFFFFFFFFFFFFFFFFFFFF49
:10379000FFFFFFFFFFFFFFFFFFFFFFFFFFFFFFFF39
:1037A000FFFFFFFFFFFFFFFFFFFFFFFFFFFFFFFF29
:1037B000FFFFFFFFFFFFFFFFFFFFFFFFFFFFFFFF19
:1037C000FFFFFFFFFFFFFFFFFFFFFFFFFFFFFFFF09
:1037D000FFFFFFFFFFFFFFFFFFFFFFFFFFFFFFFFF9
:1037E000FFFFFFFFFFFFFFFFFFFFFFFFFFFFFFFFE9
:1037F000FFFFFFFFFFFFFFFFFFFFFFFFFFFFFFFFD9
:00000001FF
